:100000000C9446050C948D050C948D050C948D056F
:100010000C948D050C948D050C948D050C948D0518
:100020000C948D050C948D050C945F2E0C94332F3D
:100030000C9473240C948D050C948D050C948D05F3
:100040000C948D050C948D050C948D050C948D05E8
:100050000C948D050C94D9240C948D050C948D056D
:100060000C948D050C948D050C948D050C948D05C8
:100070000C948D050C948D050C948D050C948D05B8
:100080000C948D050C948D050C948D050C948D05A8
:100090000C948D050C948D050C948D050C948D0598
:1000A0000C948D050C948D050C948D05290014007D
:1000B0001A000800150017001C0018000C001200A0
:1000C00013002A002B0004001600070009000A0094
:1000D0000B000D000E000F0033003400E1001D0086
:1000E0001B00060019000500110010003600370043
:1000F00038002800E0000351E300E20001512C0029
:10010000000002515000510052004F0035003A00EB
:100110003B003C003D003E003F00400041004200EB
:100120004300010001000100010001000100010085
:100130000100440045000100010001000100010030
:10014000010001000100010001000100AA00A90056
:10015000A8000100005C0100010001000100010095
:10016000000001000100AC00AE00AB0001001E0069
:100170001F0020002100220023002400250026006B
:1001800027002F000100C25CC35CC55CC65C010097
:1001900001002D002E002F00300031000100BF5C57
:1001A000C05C01000100010001000100010001002C
:1001B0000100010001000100010001000100010037
:1001C00000000100010001000100010000001E020A
:1001D0001F020000000000000000000000000000FE
:1001E000000000000000000000000000000000000F
:1001F00000000000000000003302000000000000CA
:1002000000000000000000000000000000000000EE
:1002100000000000000001000000000000000000DD
:1002200000000000000000000000000044454255AE
:10023000473A2064697361626C65642E0A00444524
:100240004255473A20656E61626C65642E0A000A69
:10025000002530313662003A200025303258000A3D
:10026000722F6320303132333435363738394142DA
:10027000434445460A007267626C6967687420747B
:10028000696D65722064697361626C652E0A007223
:1002900067626C696768742074696D657220656E49
:1002A00061626C65642E0A007267626C69676874CB
:1002B0002073657420687376205B4E4F454550521D
:1002C0004F4D5D3A2025752C25752C25750A007239
:1002D00067626C6967687420736574206873762040
:1002E0005B454550524F4D5D3A2025752C25752CA8
:1002F00025750A007267626C6967687420726169AB
:100300006E626F7720736574206873763A20256477
:100310002C25642C25642C25750A007267626C6993
:100320006768742064697361626C65205B45455041
:10033000524F4D5D3A207267626C696768745F6303
:100340006F6E6669672E656E61626C65203D202563
:10035000750A007267626C6967687420656E616215
:100360006C65205B454550524F4D5D3A2072676287
:100370006C696768745F636F6E6669672E656E612E
:10038000626C65203D2025750A007267626C6967A2
:10039000687420746F67676C65205B454550524FE9
:1003A0004D5D3A207267626C696768745F636F6E57
:1003B0006669672E656E61626C65203D2025750A51
:1003C000007267626C69676874206D6F6465205B9A
:1003D0004E4F454550524F4D5D3A2025750A0072EB
:1003E00067626C69676874206D6F6465205B454562
:1003F00050524F4D5D3A2025750A007267626C6954
:100400006768745F696E6974207267626C69676897
:10041000745F636F6E6669672E6D6F6465203D2043
:10042000302E2057726974652064656661756C743E
:100430002076616C75657320746F20454550524F6E
:100440004D2E0A007267626C696768745F696E6935
:1004500074206565636F6E666967206973206E6FCF
:100460007420656E61626C65642E0A007267626C4E
:10047000696768745F696E6974207374617274214E
:100480000A007267626C696768745F696E697420DC
:1004900063616C6C65642E0A007267626C696768E0
:1004A000745F636F6E6669672E7370656564203D67
:1004B0002025640A007267626C696768745F636F05
:1004C0006E6669672E76616C203D2025640A007295
:1004D00067626C696768745F636F6E6669672E73C5
:1004E0006174203D2025640A007267626C69676848
:1004F000745F636F6E6669672E687565203D2025A1
:10050000640A007267686C696768745F636F6E661F
:1005100069672E6D6F6465203D2025640A0072674F
:10052000626C696768745F636F6E6669672E656E7B
:1005300061626C65203D2025640A007267626C6907
:100540006768745F636F6E66696720454550524FF8
:100550004D3A0A0000047F3F1F643214643214785D
:100560003C1E1E140A052223252628292A2C2D2F5D
:100570003032333536383A3B3D3E404243454749B9
:100580004A4C4E5051535557595A5C5E60626466EE
:1005900068696B6D6F71737577797B7D7F818385FA
:1005A00087898A8C8E90929496989A9C9E9FA1A3FC
:1005B000A5A7A8AAACAEAFB1B3B4B6B8B9BBBCBE20
:1005C000BFC1C2C3C5C6C7C9CACBCCCDCED0D1D29C
:1005D000D2D3D4D5D6D7D7D8D9D9DADADBDBDBDC9E
:1005E000DCDCDCDCDDDDDDDDDCDCDCDCDCDBDBDB4A
:1005F000DADAD9D9D8D7D7D6D5D4D3D2D2D1D0CEAA
:10060000CDCCCBCAC9C7C6C5C3C2C1BFBEBCBBB9AE
:10061000B8B6B4B3B1AFAEACAAA8A7A5A3A19F9E2C
:100620009C9A98969492908E8C8A89878583817FF4
:100630007D7B79777573716F6D6B696866646260D5
:100640005E5C5A5957555351504E4C4A49474543A1
:1006500042403E3D3B3A3836353332302F2D2C2A3E
:10066000292826252322FFAA7F55400001010101E8
:10067000010101010102020202020202020203035D
:10068000030303030303040404040404040505052D
:1006900005050606060606070707070708080808EF
:1006A000090909090A0A0A0B0B0B0C0C0C0D0D0D9C
:1006B0000E0E0E0F0F0F1010111111121213131432
:1006C00014151516161717181819191A1A1B1B1CAA
:1006D0001D1D1E1E1F202021222223242425262604
:1006E000272829292A2B2C2D2D2E2F303132323339
:1006F0003435363738393A3B3C3D3E3F4041424342
:100700004445464748494A4C4D4E4F505153545525
:100710005658595A5B5D5E5F616264656668696BD5
:100720006C6D6F7072737577787A7B7D7E80828353
:100730008587888A8C8E8F91939596989A9C9EA097
:10074000A2A3A5A7A9ABADAFB1B3B5B7BABCBEC0A4
:10075000C2C4C6C9CBCDCFD1D4D6D8DBDDDFE2E46D
:10076000E7E9EBEEF0F3F5F8FAFDFF0A0025303289
:100770005820006B6579626F6172645F7265706F9B
:1007800072743A20000A0025303258006B65796295
:100790006F6172645F7365745F6C65643A200064B6
:1007A000656C5F6B65795F6269743A2063616E277F
:1007B000742064656C3A20253032580A0061646404
:1007C0005F6B65795F6269743A2063616E2774209C
:1007D0006164643A20253032580A00290A002575E0
:1007E000002F002575005D28002564002000256489
:1007F00000200025640020002564007C00253032A4
:1008000058006D6F7573656B6579205B62746E7CE3
:10081000782079207620685D287265702F61636C7E
:10082000293A205B006261636B6C696768742073AE
:100830007465703A2025750A006261636B6C6967A4
:1008400068742064697361626C650A006261636B3D
:100850006C6967687420656E61626C650A0062612C
:10086000636B6C6967687420746F67676C653A20A6
:1008700025750A006261636B6C6967687420646542
:100880006372656173653A2025750A006261636B66
:100890006C6967687420696E6372656173653A207C
:1008A00025750A005B735D004B6579626F61726448
:1008B0002073746172742E0A005B575D005B535D98
:1008C000005B525D005B445D005B435D00040330F0
:1008D00000000012034E004900550020004D006941
:1008E000006E006900000010034B00420044004607
:1008F0000061006E00730000000403090409025B3C
:1009000000030100A0FA090400000103010100092D
:1009100021110100012240000705810308000A0996
:10092000040100010300000009211101000122C09F
:10093000000705820320000A0904020002030000E8
:100940000009211101000122220007058303200074
:100950000107050303200001120110010000000837
:10096000EDFE60600100010203010631FF0974A180
:10097000010975150026FF0095207508810209768A
:10098000150026FF00952075089102C00501090297
:10099000A10185020901A100050919012905150018
:1009A00025019505750181029501750381010501F8
:1009B000093009311581257F9502750881060938AE
:1009C0001581257F950175088106050C0A380215E9
:1009D00081257F950175088106C0C005010980A1A8
:1009E0000185031A81002A83001601002603009561
:1009F0000175108100C0050C0901A10185041A01CF
:100A0000002A9C02160100269C02950175108100A7
:100A1000C005010906A1018505050719E029E715AB
:100A20000025019508750181020507190029EF15B8
:100A300000250195F0750181020508190129059528
:100A40000575019102950175039101C00501090623
:100A5000A101050719E029E7150025019508750191
:100A600081029501750881010507190029FF15000C
:100A700026FF0095067508810005081901290595CE
:100A80000575019102950175039101C011241FBEE6
:100A9000CFEFDAE0DEBFCDBF04B603FE27C0809102
:100AA000990290919A02A0919B02B0919C0287308A
:100AB000904BA740B04BD1F41092990210929A0239
:100AC00010929B0210929C0214BE84B7877F84BF51
:100AD0000FB6F894A89580916000886180936000BB
:100AE000109260000FBEE0E0F8E3099511E0A0E08D
:100AF000B1E0E2EDF3E602C005900D92A836B10731
:100B0000D9F722E0A8E6B1E001C01D92A939B207E9
:100B1000E1F70E947E2B0C94BF310C940000FF93F0
:100B2000EF93E0916801F0916901309709F0099520
:100B3000EF91FF910895FC018591803011F0EFDF76
:100B4000FBCF0895FF27E0E230E247FF0CC041955C
:100B500097FF09C0EDE26095709580959095611DB5
:100B6000711D811D911D27FF02C0219530E350E2C8
:100B7000AA27660F771F881F991FAA1FA41710F0B6
:100B8000A41B63955A95A9F7AA3008F0A95FA05D48
:100B9000AF93F395611571058105910541F7ED322C
:100BA00011F4EF93F395F21718F43F93F395FBCFFD
:100BB0008F91B5DFFA95E1F70895E991F991859163
:100BC000803021F0853219F0AADFF9CF089520E0B6
:100BD000E89455915532C1F3503311F4689455910E
:100BE0005A3348F4505390F3220F022E220F220F53
:100BF000200D250FF4CF0EF421958991999153364C
:100C000019F3533729F1533559F1BC018827992736
:100C1000E8945C3621F48991999168945591543601
:100C200039F446EF7EF077FF0DC08FEF9FEF0AC0DB
:100C300055374AE039F0583540E121F0523642E06C
:100C400009F00895FF93EF937DDFEF91FF91B7CF08
:100C5000FF93EF93FC0181918030B9F360DFFBCF0C
:100C6000FF93EF9368DFF1CFDF93CF93CDB7DEB77C
:100C70002596A3DFCF91DF9108956E9A769A0C9412
:100C80002E0C81E0089581E008950C9443061F9393
:100C9000CF93DF9300D000D00F92CDB7DEB749835A
:100CA0005A836B8320919E0189819A8121111BC0F7
:100CB0006623A9F00E945021182F682F89819A81FC
:100CC0000E94FC2069817A81812F0F900F900F90F4
:100CD0000F900F90DF91CF911F910C9452090E94B9
:100CE0002821182FEFCF0E94502169817A81EDCF02
:100CF000FC01408151816281738184810C9447069B
:100D00000E94BE22811102C00E9464230E946F15BE
:100D10000C943D060E946E150C94300C08950C94B2
:100D20008E060C948F0608950E943C1C0E94930628
:100D30002FEF84E39CE0215080409040E1F700C019
:100D400000000C94FD240F931F93CF93DF938C012D
:100D50000E947806EC01B8010E944506882309F438
:100D6000FCC0B801CE010E94EE15882309F4F5C03D
:100D7000CB3C8CE5D80709F43EC108F051C0C33C18
:100D8000ECE5DE0709F40CC148F5C6318CE5D8075F
:100D9000A8F4C2309CE5D90708F09FC0C115ECE566
:100DA000DE0709F4D5C0C130DC4509F4DCC0C80158
:100DB000DF91CF911F910F910C944106C6318CE5C4
:100DC000D80709F44BC2C23CDC4589F7F80182819F
:100DD000882309F4C2C00E941914BFC0F80182819F
:100DE000C73CFCE5DF0709F4F4C068F4C53CECE55A
:100DF000DE0709F4E9C008F4DEC0882309F4ADC0B9
:100E00000E94E310AAC0C93C9CE5D90709F4EDC0D3
:100E100008F4E5C0882309F4A0C00E941F119DC0FA
:100E2000C33DFCE5DF0709F424C190F5F801828198
:100E3000CF3CFCE5DF0709F4F3C0A8F4CD3CECE5BA
:100E4000DE0709F4E6C008F4DEC0882309F485C093
:100E50000E94030F823028F00E94030F853008F4AF
:100E6000B0C082E0DAC0C13D9CE5D90709F4F3C007
:100E700008F4E3C0882309F470C00E94030F853191
:100E800028F00E94030F873108F49BC085E1C5C09C
:100E9000CD3DFCE5DF0709F40AC1A0F4C53D9CE5A2
:100EA000D90709F4FDC008F4EBC0CC3DDC4509F0DE
:100EB0007ECFF8018281882309F44FC080E00E9430
:100EC000272C4BC0CE3D8CE5D80709F462C0CE017B
:100ED0008A5F9C45099708F06ACFF80182818823D0
:100EE00009F465CF0E94BE22811102C00E946423D2
:100EF0000E94D12290938A0280938902C031FCE53E
:100F0000DF0709F47CC108F011C1C8309CE5D9079E
:100F100009F46DC108F0E0C0C430FCE5DF0709F456
:100F20005AC108F0CBC0C2309CE5D90709F44DC1C5
:100F3000809189028260C330DC4509F449C1809107
:100F4000890290918A020E94DF220E943C1C05C007
:100F5000F801828181110E94940680E0DF91CF9197
:100F60001F910F910895F80182818823B1F3909128
:100F70002202892F8E7F90FF81608093220280FF62
:100F800005C08EE392E00E949B05E7CF8CE292E0E1
:100F9000FACFF8018281882301F30E946423DDCF18
:100FA000F80182818823C9F20E94E521827249F00A
:100FB0000E945E13D2CF882381F20E94E5218272C3
:100FC000B9F30E945113C9CF882339F20E94D61079
:100FD000C4CF882309F4C1CF0E94F210BECF88236A
:100FE00009F4BBCF0E940111B8CF882309F4B5CF13
:100FF0000E941011B2CFF8018281882309F4ADCF8D
:101000000E940B0FAACF882309F4A7CF0E941C0FC0
:10101000A4CF882309F4A1CF81E00E9461139DCF62
:10102000882309F49ACF0E94030F863020F00E9493
:10103000030F883030F286E0F0CF882309F48DCF9B
:101040000E94030F893028F00E94030F8E3008F4AD
:10105000B8CF89E0E2CF882309F47FCF0E94030F45
:101060008F3028F00E94030F843108F4AACF8FE05C
:10107000D4CFF8018281882309F46FCF88E1CDCFE6
:10108000F8018281882309F468CF0E94030F893117
:1010900028F00E94030F823208F493CF89E1BDCF7C
:1010A000F8018281882309F458CF83E2B6CFF80192
:1010B0008281882309F451CF82E001CF8091890297
:1010C0008061C630FCE5DF0709F482C008F487C000
:1010D0008091890280627CC0809189028D7FCC30B2
:1010E0009CE5D90709F474C070F4809189028C6082
:1010F000CA30FCE5DF0709F46BC008F47CC08091BE
:1011000089028E7F65C080918902877FCE309CE501
:10111000D90709F45DC0809189028B7FCF30DC450F
:1011200008F456C0809189028F7E52C0CB3FFCE507
:10113000DF0709F458C020F5C3319CE5D90709F44D
:1011400066C068F4C131FCE5DF0709F45CC0C23158
:10115000DC4509F0F4CE809189028F7739C0C53122
:101160009CE5D90709F45BC008F46FC080918A023E
:101170008160CA3FDC4509F0E2CE80938A02DFCE6F
:10118000CF3F8CE5D80709F446C088F480918A02E5
:101190008D7FCD3FECE5DE0781F380918A028E7F63
:1011A000CE3FDC4550F380918A028360E6CFC130A8
:1011B0008DE5D80709F450C0F0F180E0C230DD457C
:1011C00009F0BDCE0E946623BACE8091890281606B
:1011D00080938902B4CE809189028460F9CF809196
:1011E00089028860F5CF80918A028260C6CF8091A3
:1011F00089028064EDCF809189028068E9CF809177
:1012000089028F7DE5CF809189028F7BE1CF80912C
:101210008902837FDDCF80918A028C7FAECF80915F
:10122000890282FB992790F921E0922790FB82F9AD
:1012300090FB83F9CDCF80918A02982F9095917081
:101240008E7F892B90FB81F998CF90918902892F0D
:1012500097FB87F98058BCCF81E0B4CF0E94E5218D
:10126000F8019281992381F08A7A91E009F490E063
:1012700090936A01811106C089E20E94C0210E94F8
:1012800031226BCE85E3F9CF80916A01811104C0D0
:1012900089E20E94C721F3CF85E3FBCF90E080E095
:1012A00008950895972F70E02CE0929F600D711DB6
:1012B0001124FB0190E3899FE00DF11D1124EE0F35
:1012C000FF1FE455FF4F859194910895FC01EE0FA7
:1012D000FF1FE15BFD4F859194910895CF93DF93BC
:1012E0000E9452090E94540BEC01811521E59207DE
:1012F00008F049C0811530E5930708F030C1883EF9
:10130000910508F5803E910570F5883A910570F4D5
:10131000853A910508F0AEC08130910521F1009722
:1013200011F1049700F5D0E0C0E01DC08F3B91059E
:1013300008F4ABC0805C9109C03CD105A0F30E94C9
:101340006609EC0110C08115904388F4C11580E254
:10135000D80708F0FBC0C03FD10528F3CF3FD10527
:1013600009F008F4F1C0CE01DF91CF910895C115C5
:1013700090E4D90708F0F0C0CE019927D3FFE9C067
:10138000EC01D86CF0CF811529E5920760F5811545
:1013900038E5930708F029C1811544E5940778F4EE
:1013A000C11583E5D80708F007C1C11592E5D90733
:1013B00008F0F1C0DC2FCC27C16FD06AD4CF8115E3
:1013C00025E5920708F40CC1811536E5930708F06E
:1013D000AACF0E94EB0BC82FD0E0DC2FCC27CC2764
:1013E000DF71D062C0CF8D3B9C4509F403C1CE3B79
:1013F0008CE5D807D0F4CB3B9CE5D90709F4FDC0B8
:1014000008F0FEC0C1153AE5D30708F08CCF8C2F49
:101410008F700E94EB0B34E0D695C7953A95E1F7B3
:10142000CF709C2FEC01D0699ECFC03C4CE5D40717
:1014300009F4E9C060F4CE3B9CE5D90709F4E6C0A5
:10144000CF3BDC4509F06FCFC0E0D2ED8CCFCE01B1
:1014500090568115904208F066CF8D2F8F710E94B3
:10146000EB0B90E0982F882788279F719C012C2BED
:10147000E901B7CF853A910509F4CBC0863A9105C9
:1014800009F0CAC0C2E8D0E46ECF883A910509F4E9
:10149000C6C0893A910509F4C5C08A3A910509F494
:1014A000C4C08B3A910509F4C3C08C3A910509F484
:1014B000C2C08B3B910509F4C1C08C3B910509F476
:1014C000C0C08D3A910509F4BFC0803B910509F475
:1014D000BEC08E3A910509F4BDC08F3A910509F45A
:1014E000BCC0813B910509F4BBC0823B910509F466
:1014F000BAC0833B910509F4B9C0843B910509F456
:10150000B8C0853B910509F4B7C0863B910509F445
:10151000B6C0873B910509F4B5C0883B910509F435
:10152000B4C0893B910509F4B3C08D3B910509F422
:10153000B2C08E3B910509F4B1C08A3B910509F414
:10154000B0C0C0E0D4E40FCFD0650DCFCE019F7006
:10155000F6CEEC01D06C07CFDF70D06A04CFE4E0A8
:1015600096958795EA95E1F783702C2F2695269519
:10157000237040E2249F90011124382B8C2F83701C
:10158000C1E0D0E002C0CC0FDD1F8A95E2F7C22B8C
:10159000D32BDC68E8CECE018370992721E030E0C0
:1015A00002C0220F331F8A95E2F7C695C69580E2E6
:1015B000C89FE0011124EBCFCE018370992721E071
:1015C00030E002C0220F331F8A95E2F7C695C69518
:1015D00090E2C99FE0011124C22BD32BDA68C3CE5D
:1015E000D82FCC27C46FD06ABECED82FCC27C06FDF
:1015F000D06AB9CEC0E0D1EDB6CEC0E0D4EDB3CE66
:10160000C0E0D5EDB0CEC0E0D3EDADCEC0E0D0EDC2
:10161000AACEC1E8D0E4A7CEC3E8D0E4A4CEC2EEFF
:10162000D4E4A1CEC9EED4E49ECECAEED4E49BCEDF
:10163000C5EBD4E498CEC6EBD4E495CEC3EBD4E4AA
:1016400092CEC4EBD4E48FCEC7EBD4E48CCECCECFA
:10165000D4E489CECDECD4E486CEC3E8D5E483CE01
:10166000CAE8D5E480CEC2E9D5E47DCEC4E9D5E4AC
:101670007ACEC1E2D6E477CEC3E2D6E474CEC4E239
:10168000D6E471CEC5E2D6E46ECEC6E2D6E46BCE29
:10169000C7E2D6E468CECFE6D4E465CEC0E7D4E4B2
:1016A00062CECAE2D6E45FCE82389105B1F1B0F4E1
:1016B0008133910509F475C048F48932910509F424
:1016C00069C08A32910509F473C008958533910584
:1016D00009F459C08933910501F10895833E9105BC
:1016E000A9F138F4803E9105F9F0823E910549F167
:1016F0000895863E9105A9F1873E9105C9F1843E82
:10170000910519F520918A0221FF1FC0809189025D
:1017100084FD14C087EE90E0089520918902237023
:10172000A1F080EE90E008952091890220FD47C04D
:1017300030918A0230FF09C024FF44C090E080E06D
:1017400004C02091890222FDF7CF089520918902DB
:1017500022FD3BC030918A0230FDE3CF24FFF5CF5C
:10176000EDCF2091890223FFF0CF24FDE7CFD2CF28
:101770002091890223FD2CC030918A0231FFEECFE7
:1017800084EE90E008952091890225FFDECF89E262
:1017900090E008952091890225FFD7CF85E390E05E
:1017A00008952091890226FFD0CF8AE290E0089523
:1017B0002091890226FFC9CF81E390E0089589E353
:1017C00090E0089583EE90E0089582EE90E0089511
:1017D00086EE90E008959091890292FF06C0282F2E
:1017E00028712830F9F4877F846093FF06C0282F82
:1017F00028712831F1F4877E846120918A0220FFCC
:1018000006C0382F38713830D9F4877F816021FFC6
:1018100006C0282F28712831D1F4877E816194FD7C
:10182000877E0895282F24712430F9F68B7F8860F5
:10183000DCCF282F2471243101F78B7E8861DDCF26
:10184000382F3171313019F78E7F8860E0CF282F23
:101850002171213121F78E7E8861E1CF08950895AD
:101860000C942F0CE82FF0E0EE0FFF1FE559FE4F10
:10187000808191810895CF92DF92EF92FF920F9332
:101880001F93CF93DF938FE592E00E949B058BE639
:10189000E82E81E0F82ED0E0C0E09AE5C92E92E073
:1018A000D92E01E512E0DF93CF93DF92CF920E9411
:1018B000340687E592E00E949B05F70181919191A2
:1018C0007F010E94B1229F938F931F930F930E94D9
:1018D00034068FE492E00E949B0521968DB79EB757
:1018E00008960FB6F8949EBF0FBE8DBFC430D105C9
:1018F000D1F6DF91CF911F910F91FF90EF90DF9084
:10190000CF900895CF93DF93AFE2B1E043E351E08E
:10191000C1E0D0E08D91E82FE295EF70F0E061A199
:101920008F709E0101C0220F8A95EAF7922F909541
:10193000962391A382A1822B82A34A175B0751F7BA
:10194000A3E2B1E04FE251E0C1E0D0E08D91E82F99
:10195000E295EF70F0E061A18F709E0101C0220F4F
:101960008A95EAF7922F9095962391A382A1822BD4
:1019700082A34A175B0751F710927401109273010A
:1019800010926C0110926B01109276011092750109
:1019900010926E0110926D011092780110927701F1
:1019A0001092700110926F0110927A0110927901D9
:1019B000109272011092710184E00E94790DDF9102
:1019C000CF910C9480065F926F927F928F929F923C
:1019D000AF92BF92CF92DF92EF92FF920F931F933D
:1019E000CF93DF9323E731E00FE211E0512CEE2497
:1019F000E394F12CE901899099909E01DE011E92F9
:101A00001E92F80181918F01E82FE295EF70F0E0CE
:101A100091A18F70B70101C0660F8A95EAF7892FEF
:101A2000862B81A382A1662E6094862182A380EA00
:101A30008A95F1F783E2C82E81E0D82E50E040E08D
:101A4000E60179906E01872D82958F7090E0EC0110
:101A500088A1AD90BC90119790E0D72DDF7002C0A7
:101A600095958795DA95E2F780FD40C0C701042E71
:101A700002C0880F991F0A94E2F78A299B291196C0
:101A80009C938E934F5F5F4F4C305105C9F681A1F7
:101A9000D62DD823D1A382A1682B62A381E04D91DA
:101AA0005C914815590509F480E0582AE1E02B378C
:101AB0003E0709F09FCF252D44E06BE671E083E7F8
:101AC00091E00E947A0D0E948A06852DDF91CF91C8
:101AD0001F910F91FF90EF90DF90CF90BF90AF904C
:101AE0009F908F907F906F905F90089590E080E03E
:101AF000C4CF0895FF920F931F93CF93DF93F82ED7
:101B0000092F162FD72FC42F222349F081E080936D
:101B10007D010E94A32490937C0180937B0180919E
:101B20007D018823A1F080917B0190917C010E942E
:101B3000AF24069760F0EF2DF02FA12FBD2F90E07E
:101B400080E0D0E08C179D0744F010927D01DF917A
:101B5000CF911F910F91FF900895219131912D9375
:101B60003D930196EFCFAF92BF92CF92DF92FF925B
:101B70000F931F93CF93DF93362F472FE82FF0E07B
:101B8000E559F94F71110DC06491762F862FDF91C1
:101B9000CF911F910F91FF90DF90CF90BF90AF90AA
:101BA0000895C72FD0E02491F22E022F10E056E0C6
:101BB000659FC0011124EFEFF0E0BF010E940031EA
:101BC000832F90E0880F991F35E5369FD001379F0E
:101BD000B00D11248A1B9B0B982F990F980F6F0142
:101BE000CC1ADD0AC09ED001C19EB00DD09EB00DB2
:101BF00011248B2F949FA0011124452F55276F018D
:101C0000C41AD50AC09EA001C19E500DD09E500D91
:101C100011245F01A91AB108AC9E6001AD9ED00CE1
:101C2000BC9ED00C1124CD2CDD24EC19FD09E09FC5
:101C3000E001E19FD00DF09FD00D1124ED2F623017
:101C40007105A1F048F46115710569F06130710505
:101C500089F0EB2F852F07C06430710571F088F093
:101C600066307105B1F76E2F722F91CFE22F2B2FB7
:101C70008D2FF9CFE22F252FF6CFEB2F822F2D2F8F
:101C8000F2CF2B2F8F2DE52FEECF0895CF93DF933B
:101C9000762FE901682F842F0E94B30D7983688322
:101CA0008A83DF91CF91089580915402982F9E7F6F
:101CB00029F4817082608093540208958A34E8F395
:101CC00081708864F8CF88E090E00C947F31CF92E7
:101CD000DF92EF92FF926B017C010E94540EB701DC
:101CE000A60188E090E0FF90EF90DF90CF900C94F9
:101CF0009D31E4E5F2E083E0808311828FEF8283FF
:101D00008383148260817181828193810C94670E38
:101D10008091220280FF76C08BE395E09F938F93A2
:101D20000E943406809122020F900F9080FF6AC0BB
:101D30008091540281701F928F938EE195E09F9362
:101D40008F930E943406809122020F900F900F9083
:101D50000F9080FF57C08091540286951F928F93F9
:101D600083E095E09F938F930E9434068091220236
:101D70000F900F900F900F9080FF44C080915502FC
:101D80001F928F9389EE94E09F938F930E94340665
:101D9000809122020F900F900F900F9080FF32C021
:101DA000809156021F928F938FEC94E09F938F93B4
:101DB0000E943406809122020F900F900F900F9096
:101DC00080FF20C0809157021F928F9385EB94E093
:101DD0009F938F930E943406809122020F900F9060
:101DE0000F900F9080FF0EC0809158021F928F932A
:101DF00089E994E09F938F930E9434060F900F908F
:101E00000F900F9008958091540280FF02C0869534
:101E1000089580E0089580915802833018F48F5F10
:101E2000809358026091540270915502809156023D
:101E3000909157020C94670E80915802882319F0F4
:101E400081508093580260915402709155028091A4
:101E50005602909157020C94670E6091040170E055
:101E60008091540280FF0AC08091820123E0829F0A
:101E7000C0011124875A9D4F0C9402158091810155
:101E80009091030123E0829FF0011124E75AFD4F56
:101E9000891750F71182108212828F5F3396F8CF24
:101EA0009091540290FF14C0909181012091030100
:101EB00033E0939FF0011124E75AFD4F921710F081
:101EC0000C942D0F8183608342839F5F3396F6CFFE
:101ED0000895CF93DF9300D00F92CDB7DEB79091E6
:101EE000540290FF0AC09E012F5F3F4F0E94460E92
:101EF0004B8169818A810E94500F0F900F900F9043
:101F0000DF91CF910895CF93DF93EC01EC81F0E066
:101F1000EA59FA4F4491E4E5F2E0628181810E943E
:101F2000690F8C818F5F8C83DF91CF910895CF9360
:101F3000DF93EC01E4E5F2E0438162818C810E9451
:101F4000690F8C818F5F8C83DF91CF9108950F9300
:101F50001F93CF93DF9300D00F92CDB7DEB78C01E4
:101F600080917E0181110AC09E012F5F3F4F4FEF8C
:101F70006FEF0E94460E8A8180937E01F801648192
:101F8000613069F080917E0140E0662361F040E0BD
:101F9000623011F440917E0180E060E004C0609105
:101FA0007E0140E080E00E94500FF801848190E0C3
:101FB000019663E070E00E94143184830F900F90CB
:101FC0000F90DF91CF911F910F9108954F925F92E3
:101FD0006F927F928F929F92AF92BF92CF92DF9239
:101FE000EF92FF920F931F93CF93DF9300D00F9246
:101FF000CDB7DEB7182FD62E042F722E9091540233
:1020000090FF46C0E92FE695AE2FB0E0AD5CBE4F25
:102010008C9180938A019E7F923009F04DC09E0181
:102020002F5F3F4F812F0E94460E4B8169818A812D
:102030000E94500F10935502D092560200935702FF
:10204000772009F49CC060915402709155028091F0
:102050005602909157020E94670E8091220280FFE3
:1020600017C0809157021F928F93809156021F9242
:102070008F93809155021F928F938FEC92E09F93E4
:102080008F930E9434060FB6F894DEBF0FBECDBF0B
:102090000F900F900F90DF91CF911F910F91FF90B4
:1020A000EF90DF90CF90BF90AF909F908F907F90F8
:1020B0006F905F904F900895823019F4009157020D
:1020C000B9CF863019F410915502B4CF8930D9F3C5
:1020D000893109F0AFCFE9518E2F8170682E8E2F94
:1020E00080958170C82EE695F0E0EA59F94FE590A9
:1020F000F490412CFF2494EFA92E92E0B92E609128
:102100000201461618F00E942D0F94CF842C912CBA
:102110008E9CC0018F9C900D9E9C900D112470E0B0
:102120000E940031512E611028C0560E809122026B
:1021300080FF11C0FF92EF921F92CF921F925F9289
:102140001F924F92BF92AF920E9434060FB6F8943E
:10215000DEBF0FBECDBF20918101820E911C940184
:10216000220F331F280D391D275A3D4F402F6D2D4B
:10217000852D0E94460E4394C2CF561AD7CF809128
:10218000220280FF85CF1F920F931F92DF921F9232
:102190001F9388EA92E073CFE4E5F2E09181282F63
:1021A0004381628188E0890F0C94E60F81E00C94F2
:1021B000CC10E4E5F2E09181282F4381628188EF21
:1021C000890F0C94E60F81E00C94D910E4E5F2E05D
:1021D000628128E0620F08F46FEF282F438181812C
:1021E0000C94E60F81E00C94E610E4E5F2E06281E5
:1021F00028E0621B08F460E0282F438181810C9461
:10220000E60F81E00C94F510E4E5F2E0438128E06C
:10221000420F08F44FEF282F628181810C94E60F62
:1022200081E00C940411E4E5F2E0438128E0421BD4
:1022300008F440E0282F628181810C94E60F81E050
:102240000C94131120E00C94E60FEF92FF921F9371
:10225000CF93DF93EC0110E0EE24EA94F12C60912F
:102260000201161770F00E942D0F9A818C8190FF49
:1022700027C08F5F8C83DF91CF911F91FF90EF90EC
:10228000089520918101422F410F5527551FCA0102
:102290009A01220F331F280F391F275A3D4F70E034
:1022A000C7010E941431962F8C8140915702609192
:1022B0005602199F800D11240E94460E1F5FCFCF3A
:1022C0008150D8CFBF92CF92DF92EF92FF920F93BF
:1022D0001F93CF93DF93FC0182810FEF80FF01E01A
:1022E00010E0809102011817C0F00E942D0F80911C
:1022F0008001013009F04DC0811102C080910201BE
:10230000815080938001DF91CF911F910F91FF90B9
:10231000EF90DF90CF90BF900895C0918101C12EC2
:10232000D12CCC0DDD2DD11DCE01880F991FC80FEA
:10233000D91FC75ADD4F198218821A8234E0E32E62
:10234000F12CB12C809180018B0D87FF03C09091FF
:102350000201890F082E000C990BC816D90691F4BA
:10236000809157028E9DA0018F9D500D112455958F
:102370004795559547959E0160915602809155026B
:102380000E94460EB00EF1E0EF1AF108D9F61F5F79
:10239000A8CF90E001966091020170E00E94143194
:1023A000B0CF0F931F93CF93DF93809181019091D2
:1023B000030123E0829FF0011124E75AFD4F8917A2
:1023C00040F1C0E0D3E060910201C61740F10E94E5
:1023D0002D0F2091000180917F01820F80937F015A
:1023E00090910101920F90930101191654F4082E57
:1023F000000C990B409102014150550B8417950731
:102400001CF0219520930001DF91CF911F910F9136
:1024100008951182108212828F5F3396D0CF0C2FD5
:1024200010E070E0C8010E94143120918101820FF8
:10243000482F50E020917F01022E000C330B021731
:102440001307BCF020910101022E000C330B201762
:1024500031077CF08D9F90011124275A3D4F409108
:10246000570260915602809155020E94460ECF5F3E
:10247000AACFFA01EE0FFF1FE40FF51FE75AFD4F39
:10248000118210821282F3CF0F931F93CF93DF93A9
:102490008C01FC0184819581019681709927958337
:1024A0008483C0E0D5E580910201C81730F0DF9148
:1024B000CF911F910F910C942D0F20918101422FEC
:1024C0004C0F5527551FCA019A01220F331F280FA1
:1024D000391F275A3D4F8C2F8695F801448155812D
:1024E000840F952F911D8170409157026091560283
:1024F0008D9F802D11240E94460ECF5FD4CF0F9365
:102500001F93CF93DF93EC0110E000E09091020164
:102510009017110609F06CF40E942D0F8C8190E049
:102520000196817099278C83DF91CF911F910F9134
:10253000089520918101A801420F511D9A01220F97
:10254000331F240F351F275A3D4F4C81609156028F
:102550008091550296959017110651F04CF0442346
:1025600049F0409157020E94460E0F5F1F4FCECF99
:102570004423B9F340E0F7CF60915402669570E0D0
:102580004BE050E085E091E00E946A31892B19F41C
:1025900081E080938B010E94A32490938401809317
:1025A00083018091220280FF08C08FE892E09F9310
:1025B0008F930E9434060F900F90089510928B0114
:1025C0008091220280FF08C086E792E09F938F935C
:1025D0000E9434060F900F9008959091540290FF3E
:1025E00054C0917081113BC0926090935402662355
:1025F000E9F16091540270915502809156029091D8
:1026000057020E94670E8091220280FF0FC08091C6
:10261000540286951F928F938FED93E09F938F9333
:102620000E9434060F900F900F900F90609154020B
:10263000669570E04BE050E085E091E00E946A31E1
:10264000892B01F10E94DE1281E080938601409186
:10265000570260915602809155020C9422118532E6
:1026600010F09864C2CF880F982BBFCF80912202C0
:1026700080FFDCCF8091540286951F928F9381EC6E
:1026800093E0CCCF0E94BC12DFCF0895682F9091C9
:102690005402969581E0890F853208F081E00C9410
:1026A000ED1281E00C944613682F90915402969598
:1026B0008FEF890F09F484E20C94ED1281E00C9401
:1026C000541361E00C94ED12809154028160809368
:1026D00054028091220280FF0DC01F9281E08F93EF
:1026E00083E593E09F938F930E9434060F900F90A1
:1026F0000F900F908091540286950C94611360E0C6
:102700000C94ED1280918901811163C080912202A5
:1027100081608093220280FF14C082E894E09F933E
:102720008F930E943406809122020F900F9080FFB9
:1027300008C08CE694E09F938F930E9434060F901C
:102740000F900E94BE22811110C08091220280FF52
:1027500008C084E494E09F938F930E9434060F9006
:102760000F900E9464230E94790E0E94630E609372
:1027700054027093550280935602909357026E7FD5
:10278000C1F48091220280FF08C08BEF93E09F93F9
:102790008F930E9434060F900F900E94790E0E9432
:1027A000630E609354027093550280935602909387
:1027B00057020E94540E0E94880E10928B01809145
:1027C000540280FF03C086950E947F1381E08093AE
:1027D00089010895809154028E7F80935402609104
:1027E00054027091550280915602909157020E94B6
:1027F000670E8091220280FF0FC080915402817089
:102800001F928F938BE193E09F938F930E943406E6
:102810000F900F900F900F900E94DE122FEF80E725
:1028200092E0215080409040E1F700C000000C94FD
:102830002D0F8091220280FF10C08091540280955C
:1028400081701F928F938AE893E09F938F930E94E9
:1028500034060F900F900F900F908091540280FDDE
:102860000C94EA130C9464130F931F93CF93DF938C
:1028700080918B01882309F48DC080918A01E091B9
:102880005402E695E81BE09385018230C9F5F0E03B
:10289000EE59FA4FE491CE2FD0E003E81FE080918B
:1028A0008601882389F0109286010E94A3249E014C
:1028B00020953095820F931F90938401809383011C
:1028C0001092880110928701809183019091840178
:1028D0000E94AF248C179D0708F45CC0E09183012F
:1028E000F0918401CE0FDF1FD0938401C093830148
:1028F00083E891E0F801DF91CF911F910F91099446
:10290000863049F4F0E0E15AFA4FE491CE2FD0E05E
:1029100007E91FE0C4CF893051F4E695F0E0E45AAE
:10292000FA4FE491CE2FD0E005E211E1B8CF8F301D
:1029300051F4E695F0E0E75AFA4FE491CE2FD0E05B
:1029400002E611E1ACCF853149F4F0E0EA5AFA4FE2
:10295000E491CE2FD0E001ED11E1A1CFC8EED3E09C
:1029600004E412E1883109F49ACF833239F4E4E5C2
:10297000F5E0C591D49107EA1FE091CFC4EFD1E013
:102980000FE712E1843209F48ACFC0EDD7E005E405
:102990001EE085CFDF91CF911F910F9108953EB139
:1029A000242F209523233EB1432B3FB7F894680F83
:1029B000791F8617970711F43FBF0895FC015191C5
:1029C000CF01E8E04EB9000000C057FF2EB9550F07
:1029D000000000C000C000C02EB900C0EA9591F709
:1029E000E8CF2DB1242B2DB99B01220F331F620F8D
:1029F000731F0E94CF1487EC90E00197F1F700C09D
:102A00000000089544E00C94F114E82FE295EF7073
:102A1000F0E032A1282F2F7081E090E001C0880FF4
:102A20002A95EAF78095832382A30895CF92DF92B7
:102A3000EF92FF92853030F5811125C09091800092
:102A40009F7D90938000282F30E0AFEFBFEF0E9472
:102A5000503142E096958795779567954A95D1F7DD
:102A60006C3744E1740798F4CB0169E070E00E9490
:102A7000003170938B0060938A00FF90EF90DF909D
:102A8000CF90089584E0909180009062DACF6A50F0
:102A9000774D8F4F9F4F982F872F762F662725EFE3
:102AA00038E241E050E00E94283169017A01CA0110
:102AB000B9010E94E4309B01AC01C701B6010E943C
:102AC000E430672F782F892F99276115710521E050
:102AD0008207910571F66FEF7FEFCBCF0895269AAD
:102AE00086E30E94051582E28093800089E180934D
:102AF00081008FEF9FEF90938700809386000C9466
:102B0000D3270F931F93CF93DF93C62FD42F022F7A
:102B1000FC0182818823C9F060938E010E94A32466
:102B200090938D0180938C0180E28C0F883008F0A7
:102B300050C0C77081E001C0880FCA95EAF7DF91E5
:102B4000CF911F910F910C947F1910918E01161344
:102B500035C080918C0190918D010E94AF24883CFA
:102B6000910560F5C0E2CD0F1D17B9F080E2810F2D
:102B7000883040F4177081E001C0880F1A95EAF799
:102B80000E948619C83048F481E09D2F977001C0DB
:102B9000880F9A95EAF70E947F19802F0E946C197E
:102BA000C830B8F4D77081E001C0880FDA95EAF731
:102BB000DF91CF911F910F910C94861980E28C0FB9
:102BC000883038F4C77081E001C0880FCA95EAF7F1
:102BD000EFCFDF91CF911F910F9108959C01CB0111
:102BE000233F4CE5340731F190F4283DFCE53F07E5
:102BF000E9F0293D4CE5340769F1273D3C4579F47E
:102C000026E241EE61EE0E94811580E00895253FA5
:102C1000FCE53F07B9F090F0263F3C45B9F0FC01D8
:102C200082818823D1F010928E01089527E245EE2B
:102C300065EEE9CF26E241EE60EEE5CF27E245EE14
:102C400064EEE1CF26E241EE62EEDDCF27E245EE13
:102C500066EED9CF28E241E0EBCF81E00895909372
:102C60009401809393010895E0919301F091940170
:102C7000309721F00190F081E02D099480E00895D3
:102C8000EF92FF920F931F93CF93DF93EC01E091AC
:102C90009301F0919401309709F446C0809122018C
:102CA000882341F08091890287FF04C0888189834D
:102CB00085E088830280F381E02DCE010995809123
:102CC000220282FF31C080FF04C083E797E00E94A8
:102CD0009B0510E000E08DE6E82E87E0F82E80915D
:102CE000220280FF0EC0FE01E00FF11F80811F92C3
:102CF0008F93FF92EF920E9434060F900F900F90E7
:102D00000F900F5F1F4F0830110549F78091220285
:102D100080FF0AC08BE697E0DF91CF911F910F9162
:102D2000FF90EF900C949B05DF91CF911F910F9135
:102D3000FF90EF900895E0919301F0919401309706
:102D400039F022E0DC012C930480F581E02D099418
:102D5000089520919101309192012817390771F05F
:102D60009093920180939101E0919301F0919401ED
:102D7000309721F00680F781E02D09940895209185
:102D80008F01309190012817390771F090939001CD
:102D900080938F01E0919301F0919401309721F09D
:102DA0000084F185E02D0994089585B7806885BF7A
:102DB00085B7806885BF0895089508950C94DC1642
:102DC00008950C94E0160E94D5160E94DD160C940E
:102DD000DE1681E008950E949A240E94820C0E94CF
:102DE00021250E94D3270E9482130C94E116CF93D1
:102DF000C82F8091220282FF1EC080FF1CC08CE879
:102E000097E00E949B058091220280FF14C01F92D0
:102E1000CF9387E897E09F938F930E943406809129
:102E200022020F900F900F900F9080FF04C085E852
:102E300097E00E949B058C2FCF910C9491065F9296
:102E40006F927F928F929F92AF92BF92CF92DF92BA
:102E5000EF92FF920F931F93CF93DF93CDB7DEB71F
:102E60002A970FB6F894DEBF0FBECDBF0E94E30CC9
:102E70000E94E916882309F47AC096E9A92E91E008
:102E8000B92E10E000E088248394912C502E802FDE
:102E90000E94320C7C01F501C190D1905F01C816EF
:102EA000D90609F45EC08091220281FD0E943B0C8C
:102EB00090E080E0CE24DF243401082E02C0660CAE
:102EC000771C0A94E2F7960126213721232B09F477
:102ED00043C08E835F82E620F72081E0EF2809F46B
:102EE00080E088870E94A3248160782F9A87898751
:102EF0004E815F8168858A850E94DE17000F111F51
:102F0000F801EA56FE4F8081918168267926718208
:102F100060820E9430270E94341690919501891793
:102F2000B9F10E943416809395012A960FB6F89451
:102F3000DEBF0FBECDBFDF91CF911F910F91FF90EC
:102F4000EF90DF90CF90BF90AF909F908F907F9049
:102F50006F905F900C94F71601968C30910509F0F4
:102F6000ABCF0F5F1F4F0430110509F08FCF8FEFEC
:102F700089838A831B820E94A3248160782F9D838A
:102F80008C8349815A816B818D810E94DE17C1CF6C
:102F90002A960FB6F894DEBF0FBECDBFDF91CF915A
:102FA0001F910F91FF90EF90DF90CF90BF90AF9067
:102FB0009F908F907F906F905F900895CF93DF9355
:102FC000CDB7DEB72B970FB6F894DEBF0FBECDBFDF
:102FD0004F83588769877A878B871E821D8285E099
:102FE000FE013796DE01119601900D928A95E1F768
:102FF00049815A816B817C818D819E812B960FB690
:10300000F894DEBF0FBECDBFDF91CF910C94DC1ED4
:10301000FC01808191810C949221882309F405C1DF
:103020008238B9F40E94341681FDFFC089E30E9402
:10303000C0210E9431222FEF81EE94E02150804088
:103040009040E1F700C0000089E30E94C7210C9482
:1030500031228338A1F40E94341680FDE6C083E556
:103060000E94C0210E9431222FEF81EE94E0215076
:1030700080409040E1F700C0000083E5E6CF84384F
:10308000A1F40E94341682FDD0C087E40E94C021C2
:103090000E9431222FEF81EE94E021508040904039
:1030A000E1F700C0000087E4D0CF9CEF980F913A81
:1030B00018F40E94C021CBCF90E2980F983050F4C2
:1030C000877091E001C0990F8A95EAF7892F0E94D5
:1030D000E821BDCF9BE5980F933070F4853A31F02D
:1030E000863A39F083E890E00C94A91681E890E0E4
:1030F000FBCF82E890E0F8CF98E5980F973108F081
:103100008EC0883A09F446C0893A09F446C08A3A22
:1031100009F446C08B3A09F446C08C3A09F446C01B
:103120008B3B09F446C08C3B09F446C08D3A09F448
:1031300046C0803B09F446C08E3A09F446C08F3A37
:1031400009F446C0813B09F446C0823B09F446C0FD
:10315000833B09F446C0843B09F446C0853B09F42F
:1031600046C0863B09F446C0873B09F446C0883B0D
:1031700009F446C0893B09F446C08D3B09F446C0BA
:103180008E3B09F446C08A3B09F446C090E080E0DB
:103190000C94BF1682EE90E0FBCF89EE90E0F8CF62
:1031A0008AEE90E0F5CF85EB90E0F2CF86EB90E0F1
:1031B000EFCF83EB90E0ECCF84EB90E0E9CF87EBAF
:1031C00090E0E6CF8CEC90E0E3CF8DEC90E0E0CFA8
:1031D00083E891E0DDCF8AE891E0DACF82E991E0FF
:1031E000D7CF84E991E0D4CF81E292E0D1CF83E2DE
:1031F00092E0CECF84E292E0CBCF85E292E0C8CFDE
:1032000086E292E0C5CF87E292E0C2CF8FE690E0FF
:10321000BFCF80E790E0BCCF8AE292E0B9CF803F99
:1032200020F00E94BC250C94A3260895882309F45D
:1032300052C0823871F40E94341681FF4CC089E379
:103240000E94C0210E94312289E30E94C7210C9470
:103250003122833859F40E94341680FF3CC083E544
:103260000E94C0210E94312283E5EFCF843859F4B7
:103270000E94341682FF2FC087E40E94C0210E9462
:10328000312287E4E2CF9CEF980F913AF0F290E27E
:10329000980F983050F4877091E001C0990F8A958B
:1032A000EAF7892F0E94EE21D2CF9BE5980F933049
:1032B00020F490E080E00C94A91698E5980F9731DF
:1032C00020F490E080E00C94BF16803F20F00E9434
:1032D00024260C94A3260895CF93C82F0E940D187E
:1032E000C93349F42FEF87EE93E02150804090409E
:1032F000E1F700C000008C2FCF910C9416198823A1
:1033000021F00E94E8210C9431220895882321F0B5
:103310000E94EE210C9431220895BF92CF92DF9249
:10332000EF92FF920F931F93CF93DF936C01D62FF1
:10333000C72FFC01058102950F70128111110E94A7
:1033400005220E94DE21E82E882371F01123B1F0BE
:1033500080E28D0F883090F082E00E947C220E94F3
:10336000DE2191E0E82EE926BC2EB2949FE0B9223E
:10337000EB2DF0E0EF53FE4C0C944A31E12CF4CFEE
:103380000C2F0F70C07F11F00295007F1123A9F060
:10339000002359F080E28D0F883010F0D11109C060
:1033A000802F0E94E8210E9431228D2F0E940D184B
:1033B00014C0802F0E94F821F6CF8D2F0E9416197D
:1033C000002359F080E28D0F883010F0D1112CC00D
:1033D000802F0E94EE210E9431222B2D2850330B8A
:1033E0002430310520F40E9434160E949106EE200C
:1033F00009F4F8C10E94DA2180FDF4C1F6011282BD
:103400000E94D4210E946020C6010E94FC1B0E94E1
:10341000D421DF91CF911F910F91FF90EF90DF901A
:10342000CF90BF900C948120802F0E94FE21D3CF9B
:10343000FC2FFF70FF2EC07FC03219F0F29480EF96
:10344000F822DD2369F0D13049F1112391F10023F5
:1034500051F1F601858180FFA8CF8F70858323C04D
:10346000112381F0011106C00E9418228F290E94A9
:103470007F19B3CF0130C1F70E9418228F290E9413
:103480001E22ABCF011106C00E9427228F2D0E9461
:103490008619A3CF013009F4A0CFF6CF112329F06C
:1034A000063008F09ACF8F2DE2CF053008F095CF87
:1034B000EDCF002359F3D93349F4FFEF27EE33E082
:1034C000F15020403040E1F700C000008D2F0E94F5
:1034D000161983CF8C2F86958695837069F081307D
:1034E00009F07BCF8D2F9C2F9370111102C090E0BB
:1034F00080E00E94BF1671CF8D2F9C2F9370111109
:1035000002C090E080E00E94A91667CF112309F164
:10351000D53F99F0D63FB9F0D43F49F4809183026A
:1035200090918402816090938402809383028D2F16
:103530000E94BC250E94A32650CF809183029091C7
:1035400084028260F0CF8091830290918402846033
:10355000EACFD53F89F0D63FA9F0D43F49F4809116
:103560008302909184028E7F9093840280938302E1
:103570008D2F0E942426DECF8091830290918402B9
:103580008D7FF2CF80918302909184028B7FECCF6C
:103590008C2F837009F041C011111FCF4D2F429520
:1035A00046954770440F440F0D2F0F7010E030E028
:1035B00020E0042E04C0000F111F221F331F0A94A5
:1035C000D2F760E070E0CB01D4FF0FC06FE070E095
:1035D00080E090E004C0660F771F881F991F4A950E
:1035E000D2F76095709580959095C695C695C370F5
:1035F000602B712B822B932BC23049F058F4C130D1
:1036000019F00E941220E9CE0E940020E6CE0E940E
:103610002420E3CE0E94FE1FE0CE8695112311F0F8
:103620008C2F8170882309F4D8CE4D2F4295469572
:103630004770440F440F0D2F0F7010E030E020E072
:10364000042E04C0000F111F221F331F0A94D2F74B
:1036500060E070E0CB01D4FF0FC06FE070E080E06D
:1036600090E004C0660F771F881F991F4A95D2F714
:103670006095709580959095C695C695C370602BA2
:10368000712B822B932BC23049F058F4C13019F0C2
:103690000E94D720A2CE0E94C5209FCE0E94E92082
:1036A0009CCE0E943A2099CECF70112329F08C2F06
:1036B0000E9460208D2FDBCE8D2F0E9486198C2FCB
:1036C0000E9481208ACED23F89F160F4D03FC9F0B8
:1036D000D13F29F1112309F442C0011166CE8C2F8C
:1036E0008F7121C0D33F39F1D43FA1F7112369F184
:1036F000CF718C2F0E94602063E08C2F0E94672284
:103700006CCE112341F0053008F067CE8C2F8F71FD
:103710000E94A42062CE063008F05FCEF7CF8C2F37
:103720008F71112369F20E94602057CE8C2F8F7108
:103730001123C9F3C5CF112329F08C2F8F710E945B
:103740004B204BCE0E94462048CE81E00E947C2236
:10375000023008F442CE82E00E947C223ECE00235A
:1037600059F0D93309F0B2CE8FEF97EEE3E08150F4
:103770009040E040E1F7A8CE8C2F8F71A1CF4C2F65
:103780004F706D2FC6010E944E090E94761F25CEF4
:10379000111123CECF70C230B1F040F4CC2381F0B0
:1037A000C13009F01ACE0E94222817CEC43089F009
:1037B00068F080E0C53009F010CE0E94E9280DCEF7
:1037C0000E94EF270ACE0E948F2807CE0E94AB28C6
:1037D00004CE84E0F2CF4C2F4F706D2FC6010E94B3
:1037E0005109FBCDDF91CF911F910F91FF90EF9089
:1037F000DF90CF90BF9008950F931F93CF93DF93E7
:10380000EC018B819C81892B29F088819981892306
:103810008F3F29F4DF91CF911F910F910895CE0131
:103820000E94A3068823B1F3688179818A810E946E
:103830009C218C010E94FB200E94FD1FB801CE013B
:10384000DF91CF911F910F910C948D190E94052249
:103850000E9415220E9431220E94C7270E94A3269F
:1038600090E080E00E94A91690E080E00C94BF16E2
:103870000E94CE210C94261C0E94F5210C94381C29
:10388000E92FE295EF70E250EE3070F4F0E0EF5285
:10389000FE4C0C944A31803F19F020F4883E20F40D
:1038A00081E00895843FE1F380E00895883EC0F30D
:1038B000813FD1F7F5CF93FB882780F908950E94C7
:1038C00092210C94401CCF93DF9300D000D00F9234
:1038D000CDB7DEB70F900F900F900F900F90DF9144
:1038E000CF910895CF93DF9300D000D000D0CDB713
:1038F000DEB726960FB6F894DEBF0FBECDBFDF91C0
:10390000CF9108951F93CF93DF93C0919F0116E04D
:103910008091A0018C1304C0DF91CF911F91089575
:10392000D0E01C9FF0011D9FF00D1124EF55FE4FBC
:103930004081518162817381848195810E94721CD2
:103940002196C770E5CF4091D1015091D20160918D
:10395000D3017091D4018091D5019091D6010C943E
:10396000721C1F93CF93DF938091D601807FC1F4A7
:103970008091D3018823A1F080919F01C091A00183
:103980006091D1017091D2014091D4015091D50143
:10399000D62FD723DA01A095B09516E0C81304C03E
:1039A000DF91CF911F91089590E04115510511F0DD
:1039B000DF3F31F401968770F1CF2A0F3B1F17C00C
:1039C000189FF001199FF00D1124EF55FE4F218132
:1039D0002713F0CF20812613EDCF22812111EACFCA
:1039E000238134812417350740F3241B350B283CF1
:1039F000310500F72091D6012F7020612093D60168
:103A000026E0289FF001299FF00D1124EA55FE4F72
:103A100080818F708061808381ED91E00E94FC1B2A
:103A2000DF91CF911F910C94821CBF92CF92DF92B5
:103A3000EF92FF920F931F93CF93DF93CDB7DEB733
:103A400061970FB6F894DEBF0FBECDBF8C0185E045
:103A5000F801DE011D9601900D928A95E1F7D801DB
:103A60004C9111965C9111971296EC90129780915F
:103A7000D4019091D501009709F47FC12091D10123
:103A80003091D201622F63236F3F09F476C1139600
:103A9000CD90DC90B090D301BB2009F411C1C816C1
:103AA000D906D0F1F601E81BF90BCF01FF24F394FE
:103AB000883C910508F0F12C8091D601982F907FD9
:103AC000FF2009F4B8C091117FC0FE2C351329C026
:103AD000241327C0E11025C08F7080618093D60128
:103AE0000E94A31C81ED91E00E94FC1B8091D601F5
:103AF000D80115968C938F2D61960FB6F894DEBF82
:103B00000FBECDBFDF91CF911F910F91FF90EF902E
:103B1000DF90CF90BF900895809590958C0D9D1D5E
:103B2000C5CFCD2829F0852F84238F3F09F041C1CF
:103B300080E0B82FB170DB2E80FF3CC080919F01E8
:103B40002091A00136E0821315C04D875E878D85D8
:103B50009E850E949221292F22952F702230F0F00D
:103B6000243018F59F70F1F0F8019581907FD1F421
:103B7000D12C1EC090E0389FF001399FF00D112428
:103B8000EF55FE4F6181651306C06081641303C069
:103B90006281E6120FC001968770D5CF9F7011F039
:103BA000882331F3805E883018F3C8010E94FC1B23
:103BB000FD2CA1CFEE2009F49ECF8091D60181602B
:103BC0008093D601F12C97CF351306C0241304C07F
:103BD000D801EE2009F49AC04D875E878D859E85B9
:103BE0000E945F1C882319F1EE2009F18091D60113
:103BF000803270F02091D1013091D20138872F832B
:103C00001986DB86CA868C87CE0107960E94FC1B2C
:103C100086E0F801A1EDB1E001900D928A95E1F7FF
:103C20000E94B11C0E94A31CFF24F39464CFC8011E
:103C30000E94FC1BF9CF911113C07C2DD98AC88A30
:103C40006E2D89890E94631C81ED91E00E94FC1B0E
:103C500086E0E1EDF1E0DF011D928A95E9F763C0AE
:103C6000351312C0241310C0E1100EC0F801858373
:103C7000C8010E94FC1BE1EDF1E086E0DF011D922E
:103C80008A95E9F7FB2C37CF4D875E878D859E851A
:103C90000E945F1C882359F2EE2049F28091D601E0
:103CA000803208F4B5CF2091D1013091D2013A830E
:103CB00029831B82DD82CC828E83CE010196A6CF22
:103CC000C816D90698F1F601E81BF90BCF01F12CC3
:103CD000883C910508F049C0FE2CEE2009F4A7CFDE
:103CE000351332C0241330C08091D60180FD23C02B
:103CF000982F907F01F1D80115968C931597903FDE
:103D000039F0982F907F905F8F70892B15968C9348
:103D1000C8010E94FC1B86E0F801A1EDB1E0019012
:103D20000D928A95E1F70E94A31CE5CE80959095AF
:103D30008C0D9D1DCCCF86E0F801A1EDB1E0019086
:103D40000D928A95E1F7D7CE4D875E878D859E854A
:103D50000E945F1C81115CCF8091D60181608093AD
:103D6000D601C8010E94FC1BC6CE7C2DD98AC88A08
:103D70006E2D89890E94631C6BCFEE2009F457CF0A
:103D80004D875E878D859E850E945F1CF82E882357
:103D900009F44DCF86E0F801A1EDB1E001900D925C
:103DA0008A95E1F781ED91E00E9408180E94B11C0C
:103DB000BACF81E08E25BDCE1F93CF93DF93CDB7D1
:103DC000DEB72C970FB6F894DEBF0FBECDBF4F8382
:103DD000588769877A878B879C87CE0107960E94D0
:103DE000151D882369F08A859B85892B39F04F81C1
:103DF0005885842F85238F3F09F071C016E05FC07E
:103E000086E0FE013796DE01119601900D928A95AB
:103E1000E1F78A859B85892B89F388859F81892392
:103E20008F3F61F32091A00130E0C90101968770B6
:103E3000992740919F014817190671F40E943C1C74
:103E40001092A00110929F0186E0E1EDF1E0DF0108
:103E50001D928A95E9F7D2CF96E0929FD001939F69
:103E6000B00D1124AF55BE4FFE01319601900D9259
:103E70009A95E1F78093A0010E94821CBFCF819F99
:103E8000C00111248F559E4F0E94151D8823E9F013
:103E9000E0919F011E9FF0011124EF55FE4F4081DC
:103EA000518162817381848195810E94721C80910D
:103EB0009F0190E001968770992780939F018091E0
:103EC0009F019091A0018913DACF2C960FB6F89438
:103ED000DEBF0FBECDBFDF91CF911F9108956985E1
:103EE0007A858B859C850E94721C88CFEF92FF9209
:103EF0000F931F93CF93DF938C01892B81F0F12CCB
:103F0000EE24E394E8012196F8018491843770F45B
:103F1000843008F05FC08130B1F08230A1F1DF91D0
:103F2000CF911F910F91FF90EF900895853709F47D
:103F30004CC008F43DC09CE7980F903780F78F770E
:103F40000E94161949C00E5F1F4FFE01849190E236
:103F5000980F983060F48770FE2D01C0FF0F8A958E
:103F6000EAF78F2F0E9408220E94312202C00E948D
:103F70000D188F2D815030F2EFE9FFE03197F1F706
:103F800000C00000F7CF0E5F1F4FFE01849190E24A
:103F9000980F983050F48770FE2D01C0FF0F8A955E
:103FA000EAF78F2F0E940E22DFCF0E941619E1CF71
:103FB0000E5F1F4FFE01C491C150D8F28FE99FE000
:103FC0000197F1F700C00000F7CF0E5F1F4FFE0111
:103FD000F490CFCF0E940D188E01CBCF08950C9492
:103FE000EE1F0E94EF1F6093F9017093FA01809316
:103FF000FB019093FC010C94261C08950C94F11F76
:104000000F931F930091F9011091FA012091FB0188
:104010003091FC01602B712B822B932B1F910F9100
:104020000C94F11F0F931F930091F9011091FA0165
:104030002091FB013091FC016023712382239323A3
:104040001F910F910C94F11F0F931F930091F90191
:104050001091FA012091FB013091FC01602771273A
:10406000822793271F910F910C94F11F0C94EE1F40
:104070000C9436200E9438206093F5017093F6016D
:104080008093F7019093F8010C94261C60E070E097
:10409000CB010C943A200F931F9341E050E060E075
:1040A00070E08A019B0104C0000F111F221F331F03
:1040B0008A95D2F7C901B8011F910F910C943A204B
:1040C0000F931F9341E050E060E070E004C0440FA4
:1040D000551F661F771F8A95D2F78091F501909141
:1040E000F601A091F701B091F8018A019B01082B1C
:1040F000192B2A2B3B2BC901B8011F910F910C944E
:104100003A200F931F9341E050E060E070E004C05C
:10411000440F551F661F771F8A95D2F7CB01BA014E
:1041200060957095809590950091F5011091F6013C
:104130002091F7013091F8016023712382239323AA
:104140001F910F910C943A200F931F9341E050E080
:1041500060E070E004C0440F551F661F771F8A950A
:10416000D2F78091F5019091F601A091F701B091FD
:10417000F8018A019B01082719272A273B27C90133
:10418000B8011F910F910C943A200F931F93009147
:10419000F5011091F6012091F7013091F801602BA3
:1041A000712B822B932B1F910F910C943A200F931C
:1041B0001F930091F5011091F6012091F7013091C4
:1041C000F80160237123822393231F910F910C9494
:1041D0003A200F931F930091F5011091F601209161
:1041E000F7013091F80160277127822793271F91EB
:1041F0000F910C943A2008952CE0929F800D112489
:10420000982F977041E001C0440F9A95EAF7869580
:104210008695869595E0899FF0011124E952FE4F1D
:1042200090E080E070E05191DF0111979B01082E32
:1042300002C0369527950A94E2F72170219525272B
:10424000242325272C9301968530910561F7089545
:104250002CE0929F800D1124982F9770869586955B
:10426000869525E0829FF0011124E952FE4F50E02F
:1042700040E080E0219130E0092E02C0369527957C
:104280000A94E2F721703327042E01C0220F0A940A
:10429000EAF7822B4F5F5F4F4530510559F708957C
:1042A000BF92CF92DF92EF92FF920F931F93CF9323
:1042B000DF938C01C090F501D090F601E090F701FA
:1042C000F090F8018091F9019091FA01A091FB0121
:1042D000B091FC01C82AD92AEA2AFB2ACFE1D0E012
:1042E000BC2ED701C6010C2E04C0B695A795979594
:1042F00087950A94D2F780FD0EC0219788F7B12CDC
:104300008B2DDF91CF911F910F91FF90EF90DF9058
:10431000CF90BF900895B8018C2F0E946E0901972D
:1043200061F3EECFCF93DF93EC010E945021BE01E9
:10433000DF91CF910C946E091F93CF93DF93EB0124
:1043400090919E01992331F0CB01DF91CF911F9184
:104350000C949221882379F0CB010E945021182FD0
:10436000682FCE010E94FC20BE01812FDF91CF91EA
:104370001F910C946E09CB010E942821182FF4CFB5
:10438000682F80911001909111010C94F123682FF6
:1043900080911001909111010C94FC2380911001E7
:1043A000909111010C9407248091FD0185958595CC
:1043B000859508958091FD01877008959091FD0184
:1043C000977081E009F480E00895809121020895BA
:1043D00090912102892B80932102089580959091DC
:1043E00021029823909321020895109221020895AA
:1043F00090912002892B80932002089580959091BE
:10440000200298239093200208951092200208958C
:1044100090911F02892B80931F020895809590919F
:104420001F02982390931F02089510921F0208956F
:104430008091FE01089508950C941B229091FE0135
:10444000981721F08093FE010C941C22089580910E
:10445000FE01882329F01092FE0180E00C941C22BA
:104460000895E0911001F091110180912102808363
:10447000E0911001F0911101808190912002892B2F
:104480008083E0911001F0911101808190911F02D1
:10449000892B80839091FE01992381F0E091100196
:1044A000F09111018081892B80838091100190917E
:1044B00011010E946B2381110E942722809110011B
:1044C000909111010C94401608950C94642298E088
:1044D000899F90011124622B6093FD010E9460204E
:1044E0008091FD018595859585950C9465221092A6
:1044F000FD0180E00C9465229091FD018095892357
:104500008093FD01282F277071F4282F082E000CAE
:10451000330B9217130639F08595859585950E9482
:1045200081200C947722089590936901809368010B
:104530000895829590E09C01220F331F220F331FB4
:104540002C7C95958795959587958373282B30E0DE
:10455000C901880F991F8A7A359527952575822B71
:104560000895CF93DF93D92F0E949922C82F8D2FC2
:104570000E9499229C2FDF91CF91089590E080E0D6
:104580000E94853121E08C3E9E4F09F020E0822F71
:10459000089582E090E00C94773183E090E00C94F1
:1045A0007731CF9384E090E00E947731C82F81E289
:1045B00090E00E947731982F8C2FCF910895CF9360
:1045C000C92F682F84E090E00E948B316C2F81E22C
:1045D00090E0CF910C948B3186E090E00C94773191
:1045E000682F86E090E00C948B31AB01BC018FE02A
:1045F00090E00C949D31AB01BC0183E190E00C9400
:104600009D3160E070E0CB010C94FB2260E070E033
:10461000CB010E94F5220C9401236CEE7EEF90E01A
:1046200080E00E94A93160E082E090E00E948B313E
:1046300060E083E090E00E948B311092F9011092CB
:10464000FA011092FB011092FC0160E084E090E01E
:104650000E948B3160E081E290E00E948B3160E04B
:1046600085E090E00E948B3160E086E090E00E945F
:104670008B316FEF87E090E00E948B3140E050E09B
:10468000BA0188E090E00E949D3160E08DE090E00A
:104690000E948B3140E050E0BA0188E190E00E9436
:1046A0009D3160E087E190E00E948B3140E050E076
:1046B000BA018CE190E00E949D3160E080E290E0E0
:1046C0000E948B310C9406230C940D23682F8EE0EE
:1046D00090E00C948B31FC0132968091220188236A
:1046E00021F0809189029EE187FF96E080E0915061
:1046F00008F4089521912223D1F38F5FF8CF9C0114
:10470000FC0132969FEF80E04191461751F09F3FA8
:1047100019F4411101C0982F8F5F8630A9F79F3F90
:1047200009F40895290F311D97FD3A95F901628327
:104730000895FC01329608962191261303C0DF01EB
:1047400011971C92E817F907B9F70895E62FE69537
:10475000E695E695EE3170F4E80FF92FF11D6770DC
:1047600021E030E001C0220F6A95EAF78281822BB6
:10477000828308958091220280FF0CC01F926F9364
:104780008DEB97E09F938F930E9434060F900F90CC
:104790000F900F900895E62FE695E695E695EE3199
:1047A00078F4E80FF92FF11D677021E030E001C0C7
:1047B000220F6A95EAF720958281282322830895A3
:1047C0008091220280FF0CC01F926F938FE997E0C7
:1047D0009F938F930E9434060F900F900F900F902D
:1047E000089520912201222329F02091890227FD9A
:1047F0000C94A6230C947F2320912201222329F0DC
:104800002091890227FD0C94CB230C949923FC0161
:10481000329680912201882351F08091890287FF8E
:1048200006C08EE1DF011D928A95E9F7089586E0C2
:10483000F9CF089508950C941A240E941B248091A6
:104840009002843061F11092230288E190E020E42C
:104850000FB6F894A895809360000FBE2093600077
:1048600080E00E94161580E00E9491060E941B24A1
:1048700083B7817F846083BF83B7816083BF78946F
:10488000889583B78E7F83BF0FB6F894A8958091E3
:104890006000886180936000109260000FBE0895F0
:1048A0000895CF930E9419240E94E30C0E94502483
:1048B000C0E08C2F0E94320C892B31F4CF5FC430C2
:1048C000C1F780E0CF91089581E0FCCF08950C946A
:1048D00066240E943C1C0E94D3270E9434160E942A
:1048E00091060C9467241F921FB61F9211248F9378
:1048F0009F93AF93BF9380912302811113C0809146
:10490000850290918602A0918702B091880241961B
:10491000A11DB11D8093850290938602A09387020A
:10492000B0938802BF91AF919F918F911F901FBE4E
:104930001F90189582E084BD93E095BD9AEF97BDD6
:1049400080936E0008952FB7F8948091850290911E
:104950008602A0918702B09188022FBF0895CF925E
:10496000DF92EF92FF920F931F932FB7F89440912D
:1049700085025091860260918702709188022FBF54
:104980006A017B01EE24FF248C0130E020E0C01698
:10499000D106E206F30650F0481B590BCA011F91DD
:1049A0000F91FF90EF90DF90CF9008954150510903
:1049B000F3CF78941F921FB61F9211248F939F9369
:1049C000AF93BF938091850290918602A091870258
:1049D000B09188020196A11DB11D8093850290932C
:1049E0008602A0938702B0938802BF91AF919F91F6
:1049F0008F911F901FBE1F90189581E08093E0005B
:104A000080E28093D8001092C9008FE19EE4019764
:104A1000F1F700C0000087E090EBDC018093990281
:104A200090939A02A0939B02B0939C0288E19CE031
:104A30000FB6F894A895809360000FBE9093600025
:104A4000FFCF0E94BE22811102C00E9464230E94F7
:104A5000C922809322020E94D12290938A028093DD
:104A600089020E94CD22682F70E090E080E00C94D3
:104A7000FE1F8091270280FF12C06091150185E022
:104A8000689FB00111247595679575956795603895
:104A90007105A8F561157105A1F1862F089581FFB3
:104AA00009C06091150185E0689FB00111247595DA
:104AB0006795EDCF6091150182FD0AC080912602B5
:104AC0008823D1F09091140160911501891728F085
:104AD00085E0689FB0011124DACF869FB0011124D0
:104AE00085E0869F9001879F300D1124692F70E02B
:104AF000C9010E941431CBCF65E070E0CECF8FE7C3
:104B0000089581E008958091270280FF0CC0609194
:104B1000130170E075956795759567956115710539
:104B200049F1862F089581FF06C06091130170E05E
:104B300075956795F3CF6091130182FD0BC090913D
:104B400026029923A1F0609112018091130196171A
:104B500038F0682F70E06038710500F38FE7089532
:104B6000899FC001112470E00E941431F4CF61E0EC
:104B700070E0D7CF81E00895803F31F40E9439255D
:104B8000819580932B020895813F19F40E94392565
:104B9000F8CF823F31F40E943925819580932A0213
:104BA0000895833F19F40E943925F8CF893F29F4ED
:104BB0000E94832580932C0208958A3F21F40E944D
:104BC00083258195F7CF8B3F31F40E948325819512
:104BD00080932D0208958C3F19F40E948325F8CF0D
:104BE000843F31F4809129028160809329020895E5
:104BF000853F21F4809129028260F7CF863F21F41E
:104C0000809129028460F1CF873F21F480912902AD
:104C10008860EBCF883F21F4809129028061E5CF45
:104C20008D3F31F48091270281608093270208959F
:104C30008E3F21F4809127028260F7CF8F3FB9F732
:104C4000809127028460F1CF90912A02803F41F445
:104C500080912B0287FD10922B02992371F0089509
:104C6000813F29F480912B021816ACF3F6CF823FD6
:104C700081F497FFF2CF10922A0280912B0290913B
:104C80002C02892B90912D02892B49F71092260234
:104C90000895833F19F4191674F3DFCF893F39F46F
:104CA00080912C021816CCF610922C02D6CF8A3F97
:104CB00029F480912C0287FFD0CFF6CF8B3F39F4B7
:104CC00080912D0287FFC9CF10922D02C6CF8C3F55
:104CD00029F480912D021816BCF3BFCF843F31F424
:104CE000809129028E7F80932902B7CF853F21F4DE
:104CF000809129028D7FF7CF863F21F48091290290
:104D00008B7FF1CF873F21F480912902877FEBCF02
:104D1000883F21F4809129028F7EE5CF8D3F31F4C9
:104D2000809127028E7F8093270297CF8E3F21F4B8
:104D3000809127028D7FF7CF8F3F09F08ECF809132
:104D400027028B7FF0CF8091220283FF7EC082E01A
:104D500098E00E949B05809129021F928F938DEF0E
:104D600097E09F938F930E9434068BEF97E00E9409
:104D70009B0580912A02282F082E000C330B3F93AD
:104D80008F9388EF97E09F938F930E94340686EF6E
:104D900097E00E949B0580912B02282F082E000C83
:104DA000330B3F938F9383EF97E09F938F930E94F2
:104DB000340681EF97E00E949B0580912C02282FFA
:104DC000082E000C330B3F938F938EEE97E09F934A
:104DD0008F930E9434068CEE97E00E949B05809191
:104DE0002D02282F082E000C330B3F938F9389EE52
:104DF00097E09F938F930E94340686EE97E00E947F
:104E00009B05809126021F928F9383EE97E09F93DC
:104E10008F930E94340681EE97E00E949B0580915B
:104E200027021F928F938EED97E09F938F930E949E
:104E300034068BED97E00E949B058DB79EB74C968C
:104E40000FB6F8949EBF0FBE8DBF88E292E00E941D
:104E50009B160E94A3249093250280932402089518
:104E60001F93CF93DF9380912402909125020E949B
:104E7000AF24AC01909126022091160130E09111EF
:104E800006C0209117018AE0289F90011124421743
:104E9000530778F020912A02C0912B02D0912C0266
:104EA00010912D02211109C08C2F8D2B812B09F01F
:104EB0006AC0DF91CF911F9108959F3F19F09F5FC6
:104EC00090932602121624F40E94392580932A0218
:104ED00080912A0287FF05C00E9439258195809321
:104EE0002A021C1624F40E94392580932B028091FB
:104EF0002B0287FF05C00E943925819580932B02E4
:104F000030912A023323A1F020912B02222381F039
:104F100045EB3403C0011124992369F190932A02CF
:104F200045EB240390011124332349F130932B02E4
:104F30001D1624F40E94832580932C0280912C025C
:104F400087FF05C00E948325819580932C0211164E
:104F500024F40E94832580932D0280912D0287FFE7
:104F600005C00E948325819580932D02DF91CF910A
:104F70001F910C94A32681E080932A02D1CF81E077
:104F800080932B02D5CF9F3F09F099CFAACF86E01F
:104F9000E8E2F2E0DF011D928A95E9F7109226021D
:104FA0001092270208950E94BE22811102C00E9421
:104FB00064230E94EC2280938B02883220F0877059
:104FC000806280938B0290918B02892F817090FF79
:104FD00004C0892F8695869586950C941615809128
:104FE0008B02982F969596959695943040F49F5FF6
:104FF000990F990F990F8770892B80938B0280915D
:105000008B02816080938B020E94F02280912202A9
:1050100080FF11C080918B028695869586951F92A0
:105020008F938CE898E09F938F930E9434060F90A3
:105030000F900F900F9080918B02869586958695A4
:105040000C94161580918B02982F987F79F08850D8
:1050500080938B02887F91E009F490E080918B022D
:1050600090FB80F980938B020E94F02280912202B3
:1050700080FF11C080918B028695869586951F9240
:105080008F9384E798E09F938F930E9434060F904C
:105090000F900F900F9080918B0286958695869544
:1050A0000C94161580918B0280FD1FC08160809347
:1050B0008B02813019F489E080938B0280918B02FE
:1050C0000E94F0228091220280FF08C08CE498E0C8
:1050D0009F938F930E9434060F900F9080918B02C4
:1050E0008695869586950C941615089580918B0269
:1050F00080FF14C08E7F80938B020E94F0228091EB
:10510000220280FF08C089E398E09F938F930E945A
:1051100034060F900F9080E00C9416150895CF93ED
:10512000C0918B02C1708091220280FF0CC01F923F
:10513000CF938EE598E09F938F930E9434060F9053
:105140000F900F900F90CC2319F0CF910C947628EC
:10515000CF910C94522890918B02892F8695869539
:1051600086958F5F8F719770853080F5880F880FD7
:10517000880F892B80938B0280918B02887F91E02E
:1051800009F490E080918B0290FB80F980938B0270
:105190000E94F0228091220280FF11C080918B0238
:1051A0008695869586951F928F9385E298E09F93CA
:1051B0008F930E9434060F900F900F900F90809164
:1051C0008B028695869586950C94161590938B0286
:1051D000D3CF853008F084E0982F990F990F990F5D
:1051E00080918B028770892B80938B02887F91E05E
:1051F00009F490E080918B0290FB80F980938B0200
:105200000E94F02280918B028695869586950C945B
:1052100016158091510208959FB7F89410923002AC
:105220009FBF90919002943009F048C02091E9000E
:105230002F703091EC00932F917030FD90E8922BFD
:1052400023E02093E9002091EB0020FF34C020915F
:10525000EE0027FF30C020912E02222321F0209162
:10526000E80025FF28C010922E0226E03091E800C9
:1052700035FF14C08093F1008091E80085FD27C0C0
:105280008091E80080FFFCCF8091E8008E778093CA
:10529000E8009F709093E90080E0089530919002BB
:1052A000343049F43091EB0035FD05C0215041F414
:1052B00081E080932E029F709093E9008FEF089514
:1052C000EFE9FFE03197F1F700C00000CFCF8FB7D3
:1052D000F89421E0209330028FBFDBCF0F931F9310
:1052E000CF93DF9300D00F92CDB7DEB78C010E9431
:1052F000372C823011F0843021F584E089831B83C0
:105300000A8382E08093E9008FEF9091E80081505A
:1053100095FD06C095ED9A95F1F700008111F5CF46
:105320008091E80085FF0DC050E040E063E070E050
:10533000CE0101960E94542C8091E8008E778093D4
:10534000E8000F900F900F90DF91CF911F910F9178
:105350000895CF93DF9300D00F92CDB7DEB72091A1
:105360009002243031F523E02983805891099B83F2
:105370008A8382E08093E9008FEF9091E80081506A
:1053800095FD06C095ED9A95F1F700008111F5CFD6
:105390008091E80085FF0DC050E040E063E070E0E0
:1053A000CE0101960E94542C8091E8008E77809364
:1053B000E8000F900F900F90DF91CF910895CF9359
:1053C000DF93EC010E94372C823011F08430F9F425
:1053D00082E08093E9008FEF9091E800815095FD85
:1053E00006C095ED9A95F1F700008111F5CF8091F7
:1053F000E80085FF0CC050E040E066E070E0CE01C0
:105400000E94542C8091E8008E778093E800DF9111
:10541000CF910895CF93DF93EC010E94372C823017
:1054200011F08430B9F5809122018823B1F1809187
:10543000890287FF32C060E282E08093E9008FEF4B
:105440009091E800815095FD06C095ED9A95F1F791
:1054500000008111F5CF8091E80085FF1BC080918D
:10546000220170E050E040E0811104C050E040E0D3
:1054700068E070E0CE010E94542C8091E8008E77A5
:105480008093E80080E2FE01A1E3B2E001900D927A
:105490008A95E1F7DF91CF91089568E081E0CDCF63
:1054A00089EC98E00E949B0580918F02811109C0D0
:1054B0000E94E42D0E94412E8091E200846080933E
:1054C000E200089585EC98E00E949B0510928F02FF
:1054D000089581EC98E00C949B058DEB98E00C947A
:1054E0009B0589EB98E00E949B050C946924209110
:1054F0002F022F5F822F62E30E94F430992319F06C
:1055000020932F02089510922F0280913002882359
:10551000F1F0809190028430C1F49091E9009F7085
:105520002091EC00822F817020FD80E8892B93E090
:105530009093E9009091EB0090FF04C09091EE00F1
:1055400097FD08C08F708093E90010923002089593
:105550001092F1009091E80095FDFACF9091E8004B
:1055600090FFF0CF9091E8009E779093E800EACF0B
:1055700042E061EC81E00E94602D42E261EC82E059
:105580000E94602D42E261EC83E00C94602D8091DA
:105590009202833009F45FC030F48130C1F182306F
:1055A00009F49BC008958A3009F487C08B3009F450
:1055B0006DC0893009F04EC080919102813209F0AE
:1055C00049C08091950290919602029708F042C0DE
:1055D0008091E800877F8093E8008091E80082FF57
:1055E00035C09091F3008091F200029729F48091E8
:1055F000F1008B7F813021F48091F1008093510282
:105600008091E8008B778093E8000C94942D809132
:105610009102813AF9F48091E800877F8093E80055
:105620008091950290919602892B61F460E281E36A
:1056300092E070E00E94A32C8091E8008B77809329
:10564000E800089560E090E080E0F3CF8091900260
:105650008111C3CF089580919102813AD9F7809149
:10566000950290919602892BA9F78091E800877F97
:105670008093E8008091E80080FFFCCF80912201B8
:105680008093F1008091E8008E77BDCF80919102E8
:10569000813201F78091950290919602892BD1F683
:1056A0008091E800877F8093E8000E94942D80918C
:1056B0009302809322010C943C1C809191028132D0
:1056C00049F68091E800877F8093E8000E94942D3E
:1056D0008091940280935202089580919102813AC0
:1056E00009F0B8CF8091E800877F8093E80080912F
:1056F000E80080FFFCCF80915202C2CF84B7877F41
:1057000084BF0FB6F894A89580916000886180935B
:105710006000109260000FBE80E8809361001092DC
:1057200061000E94E3160E94E42D0E94412E8091A8
:10573000E20084608093E2008CE099E20E9494226F
:1057400078940E94C9300E94EB1688E191E00E9493
:105750002F1688EA98E00E949B0580919002853080
:1057600029F00E941F170E943414F7CF84EA98E0B2
:105770000E949B050E941D2480918E02882369F35C
:105780000E945124882349F30E943E2CE6CF0C94BA
:10579000C92B292F33272330310521F168F421301B
:1057A000310509F449C02230310509F44AC090E0BE
:1057B00080E030E020E029C02132310581F1223241
:1057C0003105A9F76330710590F7FB01EE0FFF1F5C
:1057D000E55AFE4F20813181685A7E4FFB0180815E
:1057E00090E013C099278130910599F0009741F01E
:1057F0008230910589F00397D1F6EDECF8E002C014
:10580000E9EFF8E0849190E09F01FA013183208371
:105810000895E7EEF8E0F6CFE3EDF8E0F3CF63307C
:10582000710528F6660F771FFB01EF59FE4F2081A7
:10583000318189E090E0E9CF82E190E028E539E02C
:10584000E4CF8BE590E02DEF38E0DFCF0895CF93E4
:10585000C82F0E94262CC0935302CF9108958091A7
:105860009002843011F482E0089581E008958091DF
:105870005302811102C00C942F2C089580E189BD40
:1058800082E189BD09B400FEFDCF8091D8008F7DF3
:105890008093D8008091E00082608093E000809146
:1058A000E00081FDFCCF0895AF92BF92CF92DF92CE
:1058B000FF920F931F93CF93DF936C01EB018A014B
:1058C0000E94B32DF82E811123C00115110539F066
:1058D000F80180819181C81BD90BC80ED91EB12C4B
:1058E000A12C2097A9F08091E80085FD22C080912D
:1058F000E8008E778093E80001151105A1F0F8010A
:1059000080819181A80EB91EB182A08285E0F82E17
:105910008F2DDF91CF911F910F91FF90DF90CF904E
:10592000BF90AF9008950E94B32D8823D1F2F82E36
:10593000EFCFF60181916F018093F1002197FFEF86
:10594000AF1ABF0ACECFFC018091970290919802C6
:1059500086179707A0F06115710529F49091E8006A
:105960009E779093E80090E06115710551F49111D4
:1059700008C08091E80082FF34C080E00895BC0137
:10598000F2CF809190028823C1F18530C1F18091DE
:10599000E80083FD30C08091E80082FDEACF80916D
:1059A000E80080FFE1CF8091F3002091F200382FD2
:1059B0006115710519F02830310558F091E0283053
:1059C000310509F090E02091E8002E772093E8005F
:1059D000CBCF81918093F100615071092F5F3F4FD0
:1059E000E7CF80919002882341F0853041F080918B
:1059F000E80083FFBECF81E0089582E0089583E050
:105A00000895FC018091970290919802861797075C
:105A1000A0F06115710529F48091E8008E778093DC
:105A2000E80090E06115710551F4911108C0809172
:105A3000E80082FF35C080E00895BC01F2CF80917C
:105A400090028823C9F18530C9F18091E80083FD77
:105A500031C08091E80082FDEACF8091E80080FFAC
:105A6000E1CF8091F3002091F200382F611571058C
:105A700019F02830310558F091E02830310509F04F
:105A800090E08091E8008E778093E800CBCF8491FE
:105A90008093F1003196615071092F5F3F4FE6CF3F
:105AA00080919002882341F0853041F08091E80098
:105AB00083FFBDCF81E0089582E0089583E00895DB
:105AC000982F973028F08F708093E90081E0089537
:105AD0009093E900242F762F50E0981731F07091C1
